{
  "_format": "hh-sol-artifact-1",
  "contractName": "Youtube",
  "sourceName": "contracts/Youtube.sol",
  "abi": [
    {
      "anonymous": false,
      "inputs": [
        {
          "indexed": false,
          "internalType": "uint256",
          "name": "id",
          "type": "uint256"
        },
        {
          "indexed": false,
          "internalType": "string",
          "name": "videoHash",
          "type": "string"
        },
        {
          "indexed": false,
          "internalType": "string",
          "name": "title",
          "type": "string"
        },
        {
          "indexed": false,
          "internalType": "string",
          "name": "description",
          "type": "string"
        },
        {
          "indexed": false,
          "internalType": "string",
          "name": "category",
          "type": "string"
        },
        {
          "indexed": false,
          "internalType": "string",
          "name": "thumbnailHash",
          "type": "string"
        },
        {
          "indexed": false,
          "internalType": "uint256",
          "name": "createdOn",
          "type": "uint256"
        },
        {
          "indexed": false,
          "internalType": "address",
          "name": "creator",
          "type": "address"
        }
      ],
      "name": "VideoUploaded",
      "type": "event"
    },
    {
      "inputs": [],
      "name": "numOfVideo",
      "outputs": [
        {
          "internalType": "uint256",
          "name": "",
          "type": "uint256"
        }
      ],
      "stateMutability": "view",
      "type": "function"
    },
    {
      "inputs": [
        {
          "internalType": "string",
          "name": "videoHash",
          "type": "string"
        },
        {
          "internalType": "string",
          "name": "title",
          "type": "string"
        },
        {
          "internalType": "string",
          "name": "description",
          "type": "string"
        },
        {
          "internalType": "string",
          "name": "category",
          "type": "string"
        },
        {
          "internalType": "string",
          "name": "thumbnailHash",
          "type": "string"
        },
        {
          "internalType": "uint256",
          "name": "createdOn",
          "type": "uint256"
        }
      ],
      "name": "uploadVideo",
      "outputs": [],
      "stateMutability": "nonpayable",
      "type": "function"
    },
    {
      "inputs": [
        {
          "internalType": "uint256",
          "name": "",
          "type": "uint256"
        }
      ],
      "name": "videos",
      "outputs": [
        {
          "internalType": "uint256",
          "name": "id",
          "type": "uint256"
        },
        {
          "internalType": "string",
          "name": "videoHash",
          "type": "string"
        },
        {
          "internalType": "string",
          "name": "title",
          "type": "string"
        },
        {
          "internalType": "string",
          "name": "description",
          "type": "string"
        },
        {
          "internalType": "string",
          "name": "category",
          "type": "string"
        },
        {
          "internalType": "string",
          "name": "thumbnailHash",
          "type": "string"
        },
        {
          "internalType": "uint256",
          "name": "createdOn",
          "type": "uint256"
        },
        {
          "internalType": "address",
          "name": "creator",
          "type": "address"
        }
      ],
      "stateMutability": "view",
      "type": "function"
    }
  ],
  "bytecode": "0x60806040526000805534801561001457600080fd5b50610d51806100246000396000f3fe608060405234801561001057600080fd5b50600436106100415760003560e01c806321c4cddc14610046578063a02b933614610062578063e6821bf514610080575b600080fd5b610060600480360381019061005b91906106f5565b6100b7565b005b61006a61024f565b604051610077919061081d565b60405180910390f35b61009a60048036038101906100959190610838565b610255565b6040516100ae989796959493929190610925565b60405180910390f35b6000808154809291906100c9906109f5565b919050555060405180610100016040528060005481526020018781526020018681526020018581526020018481526020018381526020018281526020013373ffffffffffffffffffffffffffffffffffffffff1681525060016000805481526020019081526020016000206000820151816000015560208201518160010190816101539190610c49565b5060408201518160020190816101699190610c49565b50606082015181600301908161017f9190610c49565b5060808201518160040190816101959190610c49565b5060a08201518160050190816101ab9190610c49565b5060c0820151816006015560e08201518160070160006101000a81548173ffffffffffffffffffffffffffffffffffffffff021916908373ffffffffffffffffffffffffffffffffffffffff1602179055509050507f7e18628b32e24a8292ac65ba09cad4331a5aa8704ebde2fb10aa7afaf2df51646000548787878787873360405161023f989796959493929190610925565b60405180910390a1505050505050565b60005481565b600160205280600052604060002060009150905080600001549080600101805461027e90610a6c565b80601f01602080910402602001604051908101604052809291908181526020018280546102aa90610a6c565b80156102f75780601f106102cc576101008083540402835291602001916102f7565b820191906000526020600020905b8154815290600101906020018083116102da57829003601f168201915b50505050509080600201805461030c90610a6c565b80601f016020809104026020016040519081016040528092919081815260200182805461033890610a6c565b80156103855780601f1061035a57610100808354040283529160200191610385565b820191906000526020600020905b81548152906001019060200180831161036857829003601f168201915b50505050509080600301805461039a90610a6c565b80601f01602080910402602001604051908101604052809291908181526020018280546103c690610a6c565b80156104135780601f106103e857610100808354040283529160200191610413565b820191906000526020600020905b8154815290600101906020018083116103f657829003601f168201915b50505050509080600401805461042890610a6c565b80601f016020809104026020016040519081016040528092919081815260200182805461045490610a6c565b80156104a15780601f10610476576101008083540402835291602001916104a1565b820191906000526020600020905b81548152906001019060200180831161048457829003601f168201915b5050505050908060050180546104b690610a6c565b80601f01602080910402602001604051908101604052809291908181526020018280546104e290610a6c565b801561052f5780601f106105045761010080835404028352916020019161052f565b820191906000526020600020905b81548152906001019060200180831161051257829003601f168201915b5050505050908060060154908060070160009054906101000a900473ffffffffffffffffffffffffffffffffffffffff16905088565b6000604051905090565b600080fd5b600080fd5b600080fd5b600080fd5b6000601f19601f8301169050919050565b7f4e487b7100000000000000000000000000000000000000000000000000000000600052604160045260246000fd5b6105cc82610583565b810181811067ffffffffffffffff821117156105eb576105ea610594565b5b80604052505050565b60006105fe610565565b905061060a82826105c3565b919050565b600067ffffffffffffffff82111561062a57610629610594565b5b61063382610583565b9050602081019050919050565b82818337600083830152505050565b600061066261065d8461060f565b6105f4565b90508281526020810184848401111561067e5761067d61057e565b5b610689848285610640565b509392505050565b600082601f8301126106a6576106a5610579565b5b81356106b684826020860161064f565b91505092915050565b6000819050919050565b6106d2816106bf565b81146106dd57600080fd5b50565b6000813590506106ef816106c9565b92915050565b60008060008060008060c087890312156107125761071161056f565b5b600087013567ffffffffffffffff8111156107305761072f610574565b5b61073c89828a01610691565b965050602087013567ffffffffffffffff81111561075d5761075c610574565b5b61076989828a01610691565b955050604087013567ffffffffffffffff81111561078a57610789610574565b5b61079689828a01610691565b945050606087013567ffffffffffffffff8111156107b7576107b6610574565b5b6107c389828a01610691565b935050608087013567ffffffffffffffff8111156107e4576107e3610574565b5b6107f089828a01610691565b92505060a061080189828a016106e0565b9150509295509295509295565b610817816106bf565b82525050565b6000602082019050610832600083018461080e565b92915050565b60006020828403121561084e5761084d61056f565b5b600061085c848285016106e0565b91505092915050565b600081519050919050565b600082825260208201905092915050565b60005b8381101561089f578082015181840152602081019050610884565b60008484015250505050565b60006108b682610865565b6108c08185610870565b93506108d0818560208601610881565b6108d981610583565b840191505092915050565b600073ffffffffffffffffffffffffffffffffffffffff82169050919050565b600061090f826108e4565b9050919050565b61091f81610904565b82525050565b60006101008201905061093b600083018b61080e565b818103602083015261094d818a6108ab565b9050818103604083015261096181896108ab565b9050818103606083015261097581886108ab565b9050818103608083015261098981876108ab565b905081810360a083015261099d81866108ab565b90506109ac60c083018561080e565b6109b960e0830184610916565b9998505050505050505050565b7f4e487b7100000000000000000000000000000000000000000000000000000000600052601160045260246000fd5b6000610a00826106bf565b91507fffffffffffffffffffffffffffffffffffffffffffffffffffffffffffffffff8203610a3257610a316109c6565b5b600182019050919050565b7f4e487b7100000000000000000000000000000000000000000000000000000000600052602260045260246000fd5b60006002820490506001821680610a8457607f821691505b602082108103610a9757610a96610a3d565b5b50919050565b60008190508160005260206000209050919050565b60006020601f8301049050919050565b600082821b905092915050565b600060088302610aff7fffffffffffffffffffffffffffffffffffffffffffffffffffffffffffffffff82610ac2565b610b098683610ac2565b95508019841693508086168417925050509392505050565b6000819050919050565b6000610b46610b41610b3c846106bf565b610b21565b6106bf565b9050919050565b6000819050919050565b610b6083610b2b565b610b74610b6c82610b4d565b848454610acf565b825550505050565b600090565b610b89610b7c565b610b94818484610b57565b505050565b5b81811015610bb857610bad600082610b81565b600181019050610b9a565b5050565b601f821115610bfd57610bce81610a9d565b610bd784610ab2565b81016020851015610be6578190505b610bfa610bf285610ab2565b830182610b99565b50505b505050565b600082821c905092915050565b6000610c2060001984600802610c02565b1980831691505092915050565b6000610c398383610c0f565b9150826002028217905092915050565b610c5282610865565b67ffffffffffffffff811115610c6b57610c6a610594565b5b610c758254610a6c565b610c80828285610bbc565b600060209050601f831160018114610cb35760008415610ca1578287015190505b610cab8582610c2d565b865550610d13565b601f198416610cc186610a9d565b60005b82811015610ce957848901518255600182019150602085019450602081019050610cc4565b86831015610d065784890151610d02601f891682610c0f565b8355505b6001600288020188555050505b50505050505056fea26469706673582212200b0de535557cff801ec38dce3a29a78eb6deb7c4f51431231828f4d6028d425b64736f6c63430008120033",
  "linkReferences": {},
  "deployedLinkReferences": {}
}